{"abi":[{"type":"constructor","inputs":[{"name":"_vault","type":"address","internalType":"address"}],"stateMutability":"nonpayable"},{"type":"function","name":"checkFlashLoan","inputs":[{"name":"amount","type":"uint256","internalType":"uint256"}],"outputs":[],"stateMutability":"nonpayable"},{"type":"function","name":"onFlashLoan","inputs":[{"name":"initiator","type":"address","internalType":"address"},{"name":"token","type":"address","internalType":"address"},{"name":"amount","type":"uint256","internalType":"uint256"},{"name":"fee","type":"uint256","internalType":"uint256"},{"name":"","type":"bytes","internalType":"bytes"}],"outputs":[{"name":"","type":"bytes32","internalType":"bytes32"}],"stateMutability":"nonpayable"},{"type":"function","name":"owner","inputs":[],"outputs":[{"name":"","type":"address","internalType":"address"}],"stateMutability":"view"},{"type":"function","name":"transferOwnership","inputs":[{"name":"newOwner","type":"address","internalType":"address"}],"outputs":[],"stateMutability":"nonpayable"},{"type":"event","name":"FlashLoanStatus","inputs":[{"name":"success","type":"bool","indexed":false,"internalType":"bool"}],"anonymous":false},{"type":"event","name":"OwnershipTransferred","inputs":[{"name":"user","type":"address","indexed":true,"internalType":"address"},{"name":"newOwner","type":"address","indexed":true,"internalType":"address"}],"anonymous":false},{"type":"error","name":"UnexpectedFlashLoan","inputs":[]}],"bytecode":{"object":"0x60a060405234801561000f575f80fd5b50604051610ee3380380610ee383398181016040528101906100319190610164565b33805f806101000a81548173ffffffffffffffffffffffffffffffffffffffff021916908373ffffffffffffffffffffffffffffffffffffffff1602179055508073ffffffffffffffffffffffffffffffffffffffff165f73ffffffffffffffffffffffffffffffffffffffff167f8be0079c531659141344cd1fd0a4f28419497f9722a3daafe3b4186f6b6457e060405160405180910390a3508073ffffffffffffffffffffffffffffffffffffffff1660808173ffffffffffffffffffffffffffffffffffffffff16815250505061018f565b5f80fd5b5f73ffffffffffffffffffffffffffffffffffffffff82169050919050565b5f6101338261010a565b9050919050565b61014381610129565b811461014d575f80fd5b50565b5f8151905061015e8161013a565b92915050565b5f6020828403121561017957610178610106565b5b5f61018684828501610150565b91505092915050565b608051610d126101d15f395f818161010d015281816101640152818161027f015281816103e8015281816104770152818161055a01526105e10152610d125ff3fe608060405234801561000f575f80fd5b506004361061004a575f3560e01c806323e30c8b1461004e5780638da5cb5b1461007e578063b20d53e01461009c578063f2fde38b146100b8575b5f80fd5b610068600480360381019061006391906108e6565b6100d4565b6040516100759190610994565b60405180910390f35b61008661032a565b60405161009391906109bc565b60405180910390f35b6100b660048036038101906100b191906109d5565b61034d565b005b6100d260048036038101906100cd9190610a00565b6106c7565b005b5f3073ffffffffffffffffffffffffffffffffffffffff168773ffffffffffffffffffffffffffffffffffffffff1614158061015c57507f000000000000000000000000000000000000000000000000000000000000000073ffffffffffffffffffffffffffffffffffffffff163373ffffffffffffffffffffffffffffffffffffffff1614155b8061021f57507f000000000000000000000000000000000000000000000000000000000000000073ffffffffffffffffffffffffffffffffffffffff166338d52e0f6040518163ffffffff1660e01b8152600401602060405180830381865afa1580156101cb573d5f803e3d5ffd5b505050506040513d601f19601f820116820180604052508101906101ef9190610a66565b73ffffffffffffffffffffffffffffffffffffffff168673ffffffffffffffffffffffffffffffffffffffff1614155b8061022a57505f8414155b15610261576040517f03058a7200000000000000000000000000000000000000000000000000000000815260040160405180910390fd5b8573ffffffffffffffffffffffffffffffffffffffff1663095ea7b37f0000000000000000000000000000000000000000000000000000000000000000876040518363ffffffff1660e01b81526004016102bc929190610aa0565b6020604051808303815f875af11580156102d8573d5f803e3d5ffd5b505050506040513d601f19601f820116820180604052508101906102fc9190610afc565b507f0947cd39683897964c4681f2a9ace479400f0bd467117d0ae02e99e303012ade90509695505050505050565b5f8054906101000a900473ffffffffffffffffffffffffffffffffffffffff1681565b5f8054906101000a900473ffffffffffffffffffffffffffffffffffffffff1673ffffffffffffffffffffffffffffffffffffffff163373ffffffffffffffffffffffffffffffffffffffff16146103da576040517f08c379a00000000000000000000000000000000000000000000000000000000081526004016103d190610b81565b60405180910390fd5b5f81116103e5575f80fd5b5f7f000000000000000000000000000000000000000000000000000000000000000073ffffffffffffffffffffffffffffffffffffffff166338d52e0f6040518163ffffffff1660e01b8152600401602060405180830381865afa15801561044f573d5f803e3d5ffd5b505050506040513d601f19601f820116820180604052508101906104739190610a66565b90507f000000000000000000000000000000000000000000000000000000000000000073ffffffffffffffffffffffffffffffffffffffff16635cffe9de30838560405180602001604052805f8152506040518563ffffffff1660e01b81526004016104e29493929190610c6a565b6020604051808303815f875af192505050801561051d57506040513d601f19601f8201168201806040525081019061051a9190610afc565b60015b610689577f5139e38896648643487d49efb563a1a69db23123a354af42962c882d437532705f6040516105509190610cc3565b60405180910390a17f000000000000000000000000000000000000000000000000000000000000000073ffffffffffffffffffffffffffffffffffffffff1663bedb86fb60016040518263ffffffff1660e01b81526004016105b29190610cc3565b5f604051808303815f87803b1580156105c9575f80fd5b505af11580156105db573d5f803e3d5ffd5b505050507f000000000000000000000000000000000000000000000000000000000000000073ffffffffffffffffffffffffffffffffffffffff1663f2fde38b5f8054906101000a900473ffffffffffffffffffffffffffffffffffffffff166040518263ffffffff1660e01b815260040161065791906109bc565b5f604051808303815f87803b15801561066e575f80fd5b505af1158015610680573d5f803e3d5ffd5b505050506106c3565b507f5139e38896648643487d49efb563a1a69db23123a354af42962c882d4375327060016040516106ba9190610cc3565b60405180910390a15b5050565b5f8054906101000a900473ffffffffffffffffffffffffffffffffffffffff1673ffffffffffffffffffffffffffffffffffffffff163373ffffffffffffffffffffffffffffffffffffffff1614610754576040517f08c379a000000000000000000000000000000000000000000000000000000000815260040161074b90610b81565b60405180910390fd5b805f806101000a81548173ffffffffffffffffffffffffffffffffffffffff021916908373ffffffffffffffffffffffffffffffffffffffff1602179055508073ffffffffffffffffffffffffffffffffffffffff163373ffffffffffffffffffffffffffffffffffffffff167f8be0079c531659141344cd1fd0a4f28419497f9722a3daafe3b4186f6b6457e060405160405180910390a350565b5f80fd5b5f80fd5b5f73ffffffffffffffffffffffffffffffffffffffff82169050919050565b5f610821826107f8565b9050919050565b61083181610817565b811461083b575f80fd5b50565b5f8135905061084c81610828565b92915050565b5f819050919050565b61086481610852565b811461086e575f80fd5b50565b5f8135905061087f8161085b565b92915050565b5f80fd5b5f80fd5b5f80fd5b5f8083601f8401126108a6576108a5610885565b5b8235905067ffffffffffffffff8111156108c3576108c2610889565b5b6020830191508360018202830111156108df576108de61088d565b5b9250929050565b5f805f805f8060a08789031215610900576108ff6107f0565b5b5f61090d89828a0161083e565b965050602061091e89828a0161083e565b955050604061092f89828a01610871565b945050606061094089828a01610871565b935050608087013567ffffffffffffffff811115610961576109606107f4565b5b61096d89828a01610891565b92509250509295509295509295565b5f819050919050565b61098e8161097c565b82525050565b5f6020820190506109a75f830184610985565b92915050565b6109b681610817565b82525050565b5f6020820190506109cf5f8301846109ad565b92915050565b5f602082840312156109ea576109e96107f0565b5b5f6109f784828501610871565b91505092915050565b5f60208284031215610a1557610a146107f0565b5b5f610a228482850161083e565b91505092915050565b5f610a3582610817565b9050919050565b610a4581610a2b565b8114610a4f575f80fd5b50565b5f81519050610a6081610a3c565b92915050565b5f60208284031215610a7b57610a7a6107f0565b5b5f610a8884828501610a52565b91505092915050565b610a9a81610852565b82525050565b5f604082019050610ab35f8301856109ad565b610ac06020830184610a91565b9392505050565b5f8115159050919050565b610adb81610ac7565b8114610ae5575f80fd5b50565b5f81519050610af681610ad2565b92915050565b5f60208284031215610b1157610b106107f0565b5b5f610b1e84828501610ae8565b91505092915050565b5f82825260208201905092915050565b7f554e415554484f52495a454400000000000000000000000000000000000000005f82015250565b5f610b6b600c83610b27565b9150610b7682610b37565b602082019050919050565b5f6020820190508181035f830152610b9881610b5f565b9050919050565b5f819050919050565b5f610bc2610bbd610bb8846107f8565b610b9f565b6107f8565b9050919050565b5f610bd382610ba8565b9050919050565b5f610be482610bc9565b9050919050565b610bf481610bda565b82525050565b5f81519050919050565b5f82825260208201905092915050565b8281835e5f83830152505050565b5f601f19601f8301169050919050565b5f610c3c82610bfa565b610c468185610c04565b9350610c56818560208601610c14565b610c5f81610c22565b840191505092915050565b5f608082019050610c7d5f830187610beb565b610c8a60208301866109ad565b610c976040830185610a91565b8181036060830152610ca98184610c32565b905095945050505050565b610cbd81610ac7565b82525050565b5f602082019050610cd65f830184610cb4565b9291505056fea2646970667358221220665f76b9b3d7887f8cfa63a610587a7fe6b8ecb7e11d2aa89b5b236f3dbcfc6464736f6c63430008190033","linkReferences":{}},"methodIdentifiers":{"checkFlashLoan(uint256)":"b20d53e0","onFlashLoan(address,address,uint256,uint256,bytes)":"23e30c8b","owner()":"8da5cb5b","transferOwnership(address)":"f2fde38b"},"id":28}